:108000008200881B82009947820099488200994922
:108010008200994A8200994B8200994C8200994DC6
:108020008200994E8200994F8200885D8200885DAF
:108030008200995082009293820099518200995255
:10804000820099538200885D8200885D8200995485
:1080500082009955820093618200885D8200885D6C
:108060008200995682009957820099588200885D53
:108070008200885D8200885D8200885D8200885D64
:10808000008760001B00808C00100000FFFF0100D3
:1080900000000000000000000000000000000000E0
:0780A00000000000000000D9
:1080A7008D0087342000B604A480B800B700CD81C6
:1080B700CF2071206D206E2071207472F90172A299
:1080C700007E17015F894B0090AE00034B0090E6DE
:1080D70004272C3D032710BE024272FB031F032413
:1080E700060C0226020C013D02270CBE014272FB60
:1080F700021F0224020C01BE004272FB011F019005
:108107005A26C95B02320003849085905D2702AA34
:108117000190855D2B0648390359905ABF0193CCCE
:10812700825827038725FDCC82B65B02CC82AA5FE3
:10813700380056BF005FBF025B0287BE01B600581A
:1081470049A07F2529A1102509AE7FFF3D002A01FF
:108157005C87995640AB0FA1082509884F0184A079
:1081670008200154A00124FB3D002A0150875F87A6
:10817700B6002A088D0082BDA6802000BE00260416
:10818700BE022743AE009E3D0020095A380339023C
:10819700390139002AF572030002047210000372D4
:1081A700580000489F463100004631000131000267
:1081B700310003AB7F24103C03260C3C0226083C0D
:1081C7000126043C002600879085B60148B6004981
:1081D7002730A1FF271C721E0001884B00B60548F7
:1081E700B60449273EA1FF2733721E00055F97514A
:1081F700EC0AAD4B2648AD4F2240250290FC5D901E
:10820700EC02AD3B270E5F5C5A3803390239012A6D
:10821700F78920C9AD3122225D90EC04AD292218DF
:1082270090EC06AD225D270D5F5C5A380739063999
:10823700052AF720BA90EC085B02AC0084DA87B60F
:108247000148BA02BA0381BE0650BE0459A3FF0013
:10825700815D9C2C24A3FFE72C0D4FB703B702B712
:1082670001380046B7008734013602360346240238
:10827700AA015CA3000126EF5F7201000302AA01B5
:10828700A300FE2C1E380138004146B700360141D5
:10829700A181250E3C03260A3C0226063C01260244
:1082A7003C0087AEFF00380056BF005FBF02875F04
:1082B7005ABF00BF0287BE005089BE0250BF028569
:1082C70027015ABF0087AE000020006C0326096C07
:1082D7000226056C0126017C87AE0004B603E00385
:1082E700B703B602E202B702B601E201B701B60070
:1082F700F2B70087B600BE06429FB700B601BE05BB
:10830700429FBB00B700B602BE04429FBB00B70046
:10831700B603BE03429FBB00B700B601BE06423F8D
:108327000172BB0000BF00B602BE054272BB00006F
:10833700BF00B603BE044272BB0000BF00B602BE58
:1083470006423F0272BB0001BF0124023C00B60394
:10835700BE054272BB0001BF0124023C00B603BE4A
:1083670006423F0372BB0002BF022405BE005CBF8A
:1083770000878D0087082000BE00261E90BE0426B9
:108387000CBE0290BE0665BF0290BF0687BF0445BC
:108397000206450307BF00BF0287A6203D00260D42
:1083A700BE01BF004503023F033A03A0085F905F89
:1083B700992017905959B304260390B306250B72D9
:1083C700B2000624015A72B0000439033902390198
:1083D70039004A2ADEBF0490BF06BE0053BF00BE65
:1083E7000253BF0287AE00004D270A68036902697E
:1083F70001794A26F687AE00004D270A74660166A2
:108407000266034A26F687B703484FA200B702B7AA
:1084170001B7008788A608200588A60C2000887B5E
:1084270002887B02891E061F045F977B086B06FE86
:108437001F07858487891E06BF082007891E06BF78
:108447000C20001E041F061E021F04855B0287887E
:10845700A600200F88A604200A88A608200588A65B
:108467000C200088897B04887B04891E081F045F11
:10847700977B0A6B061F09FE1F071E095C5CFE1F20
:1084870009858487891E06BF001E08BF022021892F
:108497001E06BF041E08BF062016891E06BF081E3B
:1084A70008BF0A200B891E06BF0C1E08BF0E20003E
:1084B7001E031F071E041F08855B04878D0084ACFD
:1084C7008D0084A1878D0084438D0084A1878D0052
:1084D700843C874504004505014506024507038797
:1084E700450800450901450A02450B0387450C006D
:1084F700450D01450E02450F03874500044501055B
:1085070045020645030787450804450905450A0648
:10851700450B078745000845010945020A45030B36
:108527008745000C45010D45020E45030F87453A67
:108537005C33206D6963726F707974686F6E5C323B
:10854700206D6963726F707974686F6E2D657370D3
:1085570033325C3120D5C6BFD8B0E5C0A9D5B9B094
:10856700E55CD5C6BFD8B0E5C0A9D5B9B0E5A2F1DD
:108577005C322E20B9CCBCFE5C76322E3028332EEE
:108587003876295C53544D38535F53746450657281
:108597006970685F4C69625C4C6962726172696597
:1085A700735C53544D38535F5374645065726970EC
:1085B700685F4472697665725C7372635C73746D2D
:1085C70038735F6770696F2E6300453A5C33206DBF
:1085D7006963726F707974686F6E5C32206D69635E
:1085E700726F707974686F6E2D65737033325C319A
:1085F70020D5C6BFD8B0E5C0A9D5B9B0E55CD5C60A
:10860700BFD8B0E5C0A9D5B9B0E5A2F15C322E203C
:10861700B9CCBCFE5C76322E3028332E3876295CF6
:1086270053544D38535F5374645065726970685F73
:108637004C69625C4C69627261726965735C535420
:108647004D38535F5374645065726970685F447244
:10865700697665725C7372635C73746D38735F748B
:10866700696D312E6300453A5C33206D6963726F23
:10867700707974686F6E5C32206D6963726F7079A0
:1086870074686F6E2D65737033325C3120D5C6BF49
:10869700D8B0E5C0A9D5B9B0E55CD5C6BFD8B0E5B7
:1086A700C0A9D5B9B0E5A2F15C322E20B9CCBCFE89
:1086B7005C76322E3028332E3876295C53544D3869
:1086C700535F5374645065726970685F4C69625C8C
:1086D7004C69627261726965735C53544D38535FBC
:1086E7005374645065726970685F44726976657225
:1086F7005C7372635C73746D38735F6932632E6386
:1087070000887B05B7011E06BF021C00041F062454
:10871700020C055F92AF0001885CA3000426F532C6
:1087270000033200023200013200008487887B0593
:10873700B7051E06BF061C00041F0624020C055FB2
:1087470092AF0005885CA3000426F53200073200CB
:10875700063200053200048487BF0092CE00BF02B4
:10876700BE001C000290BE022601878D0088451CB2
:108777000003BF0092CE009093BE001C0002BF0012
:1087870092BC000590F75F5C72BB0006BF06905C69
:10879700BE025ABF0227C420E788895EB601428914
:1087A7001E03B6004272FB014F02891E05B6014245
:1087B70072FB015B0684875D2B06905D2B0A65873C
:1087C70050905D2B07655087905020F9905020EE10
:1087D70089FEBF001E01EE02BF02858789FEBF0822
:1087E7001E01EE02BF0A8587908990BE00FF90BEEA
:1087F70002EF0290858790AE80802011931C0003C2
:1088070089938D00884585928D0005909390A3806C
:108817008C26E987AE03FF948D0088655D27048D5C
:108827000087FD8D008FF2AC00886188BF045F92DE
:10883700AF000172D700045C905A26F3848788F64C
:10884700B705E601B706E602B707848789858D0075
:10885700886B01020408AC008868AC0088535F5C31
:10886700879D20FD20FE8D0084608D0084658988AA
:108877003B00043B00053B000652018D00851B4F62
:108887006B010D0427237B044A271E7B04A10227C3
:1088970018AE0069BF065FBF0435000001358600CA
:1088A70002356D00038D0099450D03271E7B03A13B
:1088B700802718AE006ABF065FBF04350000013588
:1088C700860002356D00038D0099451E06A304003E
:1088D7002518AE006BBF065FBF0435000001358663
:1088E7000002356D00038D0099450D05271E7B0598
:1088F700A1402718AE006CBF065FBF04350000011A
:1089070035860002356D00038D0099450D02270657
:108917007B02A1112518AE006DBF065FBF043500AD
:10892700000135860002356D00038D009945BE08AC
:108937002602BE0A270EBE08A300062605BE0AA306
:108947001A812518AE006EBF065FBF04350000010F
:1089570035860002356D00038D009945BC00521223
:10896700A4C0BD005212BC0052121A02BD0052121E
:10897700BC005210A4FEBD005210BC00521CA43013
:10898700BD00521CBC00521B4FBD00521B7B025F37
:1089970097BF025FBF00AE4240BF06AE000FBF04E5
:1089A7008D0082FB8D008528BE08A300012605BE29
:1089B7000AA386A1256EA6806B010D05261EAE00B3
:1089C70003BF065FBF048D0084E78D0082FB8D0027
:1089D70085018D0084F48D00837F2020AE0019BFB0
:1089E700065FBF048D0084E78D0082FB8D00850143
:1089F7008D0084F48D00837FA6C06B01BE02260420
:108A07005F5CBF027B02905F9097AE0003BF00934D
:108A17008D0087A090AE000A8D0087BE9F4CBD00D9
:108A2700521D20298D0084E7A6018D0083EC8D005F
:108A370085018D0084F48D00837FBE02A30004248A
:108A470005AE0004BF027B024CBD00521DB603BD3C
:108A570000521BB602A40F1A01BD00521CBC0052E3
:108A670010AA01BD0052107B048D0097887B07BDBB
:108A77000052131E064F5849019FA4061A03AA4025
:108A8700BD0052145B07AC0084C38D0084608D0069
:108A970084203B000E89B70845000E45010D4502AD
:108AA7000C45030B45040A450509272CA110272867
:108AB700A1202724A1302720A160271CA1702718F7
:108AC700AE00A4BF065FBF04350000013585000274
:108AD70035D100038D0099453D0E271EB60EA11115
:108AE7002718AE00A5BF065FBF0435000001358516
:108AF700000235D100038D0099453D0D271EB60DA7
:108B0700A1442718AE00A6BF065FBF0435000001C9
:108B17003585000235D100038D0099453D0C271E90
:108B2700B60CA1222718AE00A7BF065FBF04350009
:108B370000013585000235D100038D0099453D0BB5
:108B4700271EB60BA1882718AE00A8BF065FBF0473
:108B5700350000013585000235D100038D009945A8
:108B6700B60AA155271C3D0A2718AE00A9BF065F04
:108B7700BF04350000013585000235D100038D00A3
:108B87009945B609A12A271C3D092718AE00AABF97
:108B9700065FBF04350000013585000235D10003AB
:108BA7008D009945BC00525CA4F0BD00525CB60D27
:108BB700A40488B60EA401B70184BA01B700B60CA5
:108BC700A402BA00B700B60BA408BA0088BC0052CA
:108BD7005CB70184BA01BD00525CBC005258A48F37
:108BE700BA08BD005258BC00526FA4FCBD00526FBA
:108BF700B609A40288B60AA401B70184BA0188BCE1
:108C070000526FB70184BA01BD00526F1E019EBDAD
:108C17000052657B02BD0052665B0232000EAC005B
:108C270084CC8D0084608D0084203B000E89B708BA
:108C370045000E45010D45020C45030B45040A4549
:108C47000509272CA1102728A1202724A130272098
:108C5700A160271CA1702718AE00E3BF065FBF0401
:108C6700350000013585000235D100038D00994597
:108C77003D0E271EB60EA1112718AE00E4BF065FF2
:108C8700BF04350000013585000235D100038D0092
:108C970099453D0D271EB60DA1442718AE00E5BF27
:108CA700065FBF04350000013585000235D100039A
:108CB7008D0099453D0C271EB60CA1222718AE0042
:108CC700E6BF065FBF04350000013585000235D1D8
:108CD70000038D0099453D0B271EB60BA188271869
:108CE700AE00E7BF065FBF0435000001358500020F
:108CF70035D100038D009945B60AA155271C3D0AB9
:108D07002718AE00E8BF065FBF04350000013585B0
:108D1700000235D100038D009945B609A12A271C09
:108D27003D092718AE00E9BF065FBF043500000103
:108D37003585000235D100038D009945BC00525C92
:108D4700A40FBD00525CB60DA44088B60EA410B7A0
:108D57000184BA01B700B60CA420BA00B700B60B5D
:108D6700A480BA0088BC00525CB70184BA01BD0078
:108D7700525CBC005259A48FBA08BD005259BC00BE
:108D8700526FA4F3BD00526FB609A40888B60AA4AF
:108D970004B70184BA0188BC00526FB70184BA01D5
:108DA700BD00526F1E019EBD0052677B02BD00527F
:108DB700685B0232000EAC0084CC8D0084603B00FF
:108DC7000C8D00851EB70C4500083D082746B608E0
:108DD700A1402740A120273CA1602738A1A0273424
:108DE700A1E02730A180272CA1C02728A1B02724E4
:108DF700A1F02720A190271CA1D02718AE004DBFB6
:108E0700065FBF04350000013585000235350003D4
:108E17008D0099453D0C2618AE004EBF065FBF0476
:108E27003500000135850002353500038D00994571
:108E3700450C003300AE00048D0084EA72BB0002CB
:108E4700BF0292BC0001B40092BD0001B608A58024
:108E57002735B608A510270C92BC0009BA0C92BD9D
:108E67000009200A92BC0009B40092BD0009AE00B7
:108E7700028D00851172BB0006BF0692BC0005BAC1
:108E87000C92BD00052017AE00028D00851172BB44
:108E97000006BF0692BC0005B40092BD0005AE00F7
:108EA7000372BB000ABF0AB608A540270C92BC0094
:108EB70009BA0C92BD0009200A92BC0009B40092BD
:108EC700BD0009B608A520270C92BC0001BA0C9278
:108ED700BD0001200A92BC0001B40092BD0001321E
:108EE700000CAC0084C7C60013277DC600158D0093
:108EF700840E8D0081778D0080A74123AE148D00ED
:108F070081425D26154FBD005265BD005266BC000B
:108F1700525CA4FABD00525C204AA300002E272E03
:108F27000590939050939EBD0052659FBD00526679
:108F3700BC00525CAA01BD00525CBC00525CA4FBA1
:108F4700BD00525C201E9EBD0052659FBD0052664B
:108F5700BC00525CAA04BD00525CBC00525CA4FE7B
:108F6700BD00525C725F0013C60014277DC6001651
:108F77008D00840E8D0081778D0080A74123AE146C
:108F87008D0081425D26154FBD005267BD005268B6
:108F9700BC00525CA4AFBD00525C204AA300002E67
:108FA700272E0590939050939EBD0052679FBD005A
:108FB7005268BC00525CAA10BD00525CBC00525CF7
:108FC700A4BFBD00525C201E9EBD0052679FBD001E
:108FD7005268BC00525CAA40BD00525CBC00525CA7
:108FE700A4EFBD00525C35010014878D0084608DAD
:108FF7000091C0AE00208D0087E3202DA602C1009E
:1090070011271FC700115500110010A60AC1001132
:109017002610A6103F0135500002350F00038D00C2
:109027009912AE00208D0087E3A6AABD0050E0C6C6
:10903700001E27088D008EED725F001EAE00208D8A
:109047000087D78D00850E8D0082E0BE00A300004B
:109057002605BE02A303E925D08D00964658BF0218
:109067005FBF00AE00178D0087EF8D0087D7BE006A
:10907700A300002605BE02A310872506A60AAC009A
:109087009005AE00178D0087D7BE00A30000260508
:10909700BE02A30F3D2506A608AC009005AE00173B
:1090A7008D0087D7BE00A300002605BE02A30E11C0
:1090B7002506A606AC009005AE00178D0087D7BE23
:1090C70000A300002605BE02A30D7B2404AC00907C
:1090D70003A604AC0090058D0084608D008420B742
:1090E7000C45000845010D45020B45030A450409D7
:1090F700A104271C3D0C2718AE018CBF065FBF04D7
:10910700350000013585000235D100038D009945F2
:109117003D082727B6084A2722B608A102271CA11F
:10912700032718AE018DBF065FBF04350000013568
:1091370085000235D100038D009945B60BA1102794
:109147001C3D0B2718AE018EBF065FBF043500001C
:10915700013585000235D100038D0099453D0A2769
:109167001EB60AA1202718AE018FBF065FBF0435C0
:109177000000013585000235D100038D009945B601
:1091870009A140271C3D092718AE0190BF065FBF04
:1091970004350000013585000235D100038D0099A3
:1091A70045B60DBD00526EB608BA0CBA0BBA0ABA6C
:1091B70009BD00526DAC0084CC9B8D009541359064
:1091C7000000A6103F0135500002350F00038D0047
:1091D7008DC18D0098D4350400063F053501000484
:1091E7004FAE002089AE1A80BF02AE0006BF0085D1
:1091F7008D00886D35010000A6078D0095C58D008F
:10920700940C3F0090AE04004FAE000F8D0096B651
:109217005F8D00993AA6018D0098693F053F043F8D
:10922700033F025F3F013F00A6608D008A913F0523
:109237003F043F033F025F3F013F00A6608D008C64
:10924700293F04352000033F023F013F004F8D00B7
:1092570090DE35010000A6018D009722A6018D0042
:1092670097E9A6018D0098298D0094AFA6CCBD0083
:1092770050E0A655BD0050E0A606BD0050E1A6FA95
:10928700BD0050E2A6AABD0050E09A878A84A4BF19
:1092970088868D0084568D00845BAE00208D008704
:1092A700D78D0082CDAE00208D0087EFAE00248DD4
:1092B7000087D78D0082CDAE00248D0087EFAE00EA
:1092C70011F6A10A2504AC009352C600122753AE2B
:1092D70000248D0087D7BE00A300002605BE02A389
:1092E70001912567A6103F0135500002350F000395
:1092F7008D00992D5FCF0024CF0026A6FFCB00104D
:10930700C70010C600102643A601C80012C70012E6
:10931700A6103F0135500002350F00038D0099203C
:109327002029AE00248D0087D7BE00A300002605A4
:10933700BE02A305DD25145FCF0024CF002655000C
:10934700110010A601C80012C70012A6018D0098CF
:10935700A98D0084968D00848B803B0000BC005251
:1093670017C70028BC005218C70029A62FC5002917
:10937700270F4FBD005218BC005218A4D0BD005291
:1093870018720300280DBC0052197205002A0472D6
:109397005F001FA644C40028A144261655001D00DF
:1093A70000B6004CC7001D5FB60097BC005216D729
:1093B700001B720D00281655001D0000B6004CC793
:1093C700001D5FB60097BC005216D7001B7209003C
:1093D700282FC6001D2720A601C1001B260AC7008B
:1093E7001355001C00152008C7001455001C001653
:1093F700725F001DC7001EBC005211AA04BD0052B7
:1094070011320000804FBD005250BD005251BD00C7
:109417005252BD005253BD005254BD005256BD00BA
:10942700525CBD00525DA601BD005258BD005259A5
:10943700BD00525ABD00525B4FBD00525CBD005289
:109447005DBD005258BD005259BD00525ABD005271
:109457005BBD00525EBD00525FBD005260BD005251
:1094670061A6FFBD005262BD0052634FBD00526549
:10947700BD005266BD005267BD005268BD0052690B
:10948700BD00526ABD00526BBD00526CBD00526FE9
:10949700A601BD0052574FBD00526EBD00526DBDB3
:1094A700005264BD005255873F00A6403F0135502A
:1094B7000002350F00038D008DC1BC005402A4F7D4
:1094C700BD005402BC005402AA08BD005402BC00EF
:1094D7005401A4FDBD005401BC005400A4F0BD001C
:1094E7005400BC005400AA06BD005400BC0054013F
:1094F700A48FBD005401BC005401AA70BD005401E3
:10950700BC005402A4CFBD005402BC005402A4BF47
:10951700BD005402BC005402AA06BD005402BC00A0
:109527005401AA01BD005401AE00C88D0098FCBCCF
:10953700005401AA01BD00540187520435000001FF
:109547003588000235590003965C8990AE00048D7A
:1095570000883285BC0050C0AA01BD0050C0BC00C5
:1095670050C3A1E126EEBC0050C6A4E7BD0050C61B
:10957700BC0050C6BD0050C6BC0050C6A4F8BD0014
:1095870050C6BC0050C6BD0050C6BC0050C6A4188B
:109597004444443F00B701965C72BB0000F65F97F6
:1095A700BF065FBF048D00837900F42400BE00A3CB
:1095B70000E42605BE02A3E1C025F25B04878D0007
:1095C700841BB7084500094A2732B608A102272C91
:1095D700A1042728A1032724A1052720A106271CCA
:1095E700A1072718AE0180BF065FBF043500000141
:1095F70035860002356D00038D0099453D09271D0D
:10960700B6094A2718AE0181BF065FBF04350000BF
:109617000135860002356D00038D0099453D092708
:109627000EBC00521ABA08BD00521AAC0084D533DA
:1096370008BC00521AB408BD00521AAC0084D53FCA
:10964700053F043F022044BC005401AA01BD005459
:1096570001BC005400A58027F8BC005400A47FBDBE
:10966700005400BC005405B700BC0054045F974F7A
:1096770002905FB6009097BF005102BA0001517285
:10968700B9000490BF04B6024CB702B602A1042584
:10969700B6BE045454BF025FBF00AE0CE4BF065F02
:1096A700BF048D0082FBA60A8D0083FDBE02878D55
:1096B7000084608D008420BF0CB70890BF0A450066
:1096C700093D082728A1102724A1202720A14027EA
:1096D7001CA1602718AE0075BF065FBF04350000E8
:1096E700013585000235D100038D009945B60ABDC5
:1096F700005262B60BBD005263B60CBD005260B695
:109707000DBD005261BC005250A48FBA08BD005273
:1097170050B609BD005264AC0084CC8D00841BB7E1
:10972700094500082618AE026CBF065FBF04350066
:1097370000013585000235D100038D0099453D08AC
:10974700271DB6084A2718AE026DBF065FBF04354E
:109757000000013585000235D100038D0099453D94
:1097670008270EBC005254BA09BD005254AC0084FD
:10977700D53309BC005254B409BD005254AC00841F
:10978700D53B0008B70827214A271EB608A102279C
:1097970018AE015CBF065FBF0435000001358600C7
:1097A70002356D00038D0099453D08260CBC00521B
:1097B70011A4FBBD0052112025BC005211AA04BD03
:1097C700005211B6084A260CBC005211A4F7BD007E
:1097D7005211200ABC005211AA08BD0052113200D2
:1097E70008873B0008B708271B4A2718AE0234BF73
:1097F700065FBF04350000013585000235D100033F
:109807008D0099453D08270CBC005250AA01BD00A8
:109817005250200ABC005250A4FEBD0052503200E4
:1098270008873B0008B708271B4A2718AE024ABF1C
:10983700065FBF04350000013585000235D10003FE
:109847008D0099453D08270CBC00526DAA80BD00CC
:10985700526D200ABC00526DA47FBD00526D3200CC
:1098670008873B0008B708271B4A2718AE0476BFAE
:10987700065FBF04350000013585000235D10003BE
:109887008D0099453D08270CBC005250AA80BD00A9
:109897005250200ABC005250A47FBD0052503200E3
:1098A70008873B0008B7082618AE0868BF065FBFE1
:1098B70004350000013585000235D100038D00997C
:1098C700453308B608BD005255320008874FBD0022
:1098D7005210BD005211BD005212BD005213BD00FF
:1098E7005214BD00521ABD00521BBD00521CA602E5
:1098F700BD00521D879093931CFFFF905D270B9D22
:109907009D9D9D9D9D9D9D9D20EB8743B70092BC8E
:109917000001B40092BD000187B70092BC0001BAF4
:109927000092BD000187B70092BC0001B80092BD4C
:109937000001879EBD00525E9FBD00525F8720FEDB
:109947008080808080808080808080808080808010
:0299570080800E
:040000050000881B54
:00000001FF
